:100000000C9434000C9449000C9449000C94490061
:100010000C9449000C9449000C9449000C9449003C
:100020000C9449000C9449000C9449000C9449002C
:100030000C9449000C9449000C9449000C9449001C
:100040000C944B000C9449000C9449000C9449000A
:100050000C9449000C9449000C9449000C944900FC
:100060000C9449000C94490011241FBECFEFD8E036
:10007000DEBFCDBF11E0A0E0B1E0ECE9F4E002C0EA
:1000800005900D92A430B107D9F70E9455000C9449
:100090004C020C9400001F920F920FB60F92112485
:1000A0000F900FBE0F901F901895569A84B58368D5
:1000B00084BD85B5836085BD80916E00816080932D
:1000C0006E0020E030E048EC52E460910001709155
:1000D000010180910201909103010E94ED0020E056
:1000E00030E040E853E40E94DF0120E030E040E8E7
:1000F0005FE30E9480000E945F0167BD7894FFCF9C
:100100005058BB27AA270E9498000C94A5010E9472
:10011000970138F00E949E0120F039F49F3F19F4B6
:1001200026F40C9494010EF4E095E7FB0C948E01F8
:10013000E92F0E94B60158F3BA17620773078407C4
:10014000950720F079F4A6F50C94D8010EF4E0950B
:100150000B2EBA2FA02D0B01B90190010C01CA0181
:10016000A0011124FF27591B99F0593F50F4503E2C
:1001700068F11A16F040A22F232F342F4427585F1E
:10018000F3CF469537952795A795F0405395C9F736
:100190007EF41F16BA0B620B730B840BBAF09150EE
:1001A000A1F0FF0FBB1F661F771F881FC2F70EC08D
:1001B000BA0F621F731F841F48F487957795679560
:1001C000B795F7959E3F08F0B0CF9395880F08F04C
:1001D0009927EE0F9795879508950E9401010C9439
:1001E000A5010E949E0158F00E94970140F029F459
:1001F0005F3F29F00C948E0151110C94D9010C949D
:1002000094010E94B60168F39923B1F3552391F349
:10021000951B550BBB27AA2762177307840738F075
:100220009F5F5F4F220F331F441FAA1FA9F335D0D2
:100230000E2E3AF0E0E832D091505040E695001C86
:10024000CAF72BD0FE2F29D0660F771F881FBB1F40
:10025000261737074807AB07B0E809F0BB0B802D1E
:10026000BF01FF2793585F4F3AF09E3F510578F04A
:100270000C948E010C94D9015F3FE4F3983ED4F3C3
:10028000869577956795B795F7959F5FC9F7880F1E
:10029000911D9695879597F90895E1E0660F771F70
:1002A000881FBB1F621773078407BA0720F0621B01
:1002B000730B840BBA0BEE1F88F7E09508950E942C
:1002C000BE0188F09F5798F0B92F9927B751B0F029
:1002D000E1F0660F771F881F991F1AF0BA95C9F7CA
:1002E00014C0B13091F00E94D801B1E008950C948F
:1002F000D801672F782F8827B85F39F0B93FCCF342
:10030000869577956795B395D9F73EF49095809546
:10031000709561957F4F8F4F9F4F089597F99F6715
:1003200080E870E060E008959FEF80EC089500247D
:100330000A941616170618060906089500240A944A
:1003400012161306140605060895092E0394000CD0
:1003500011F4882352F0BB0F40F4BF2B11F460FF5F
:1003600004C06F5F7F4F8F4F9F4F089557FD905888
:10037000440F551F59F05F3F71F04795880F97FB69
:10038000991F61F09F3F79F0879508951216130623
:100390001406551FF2CF4695F1DF08C01616170652
:1003A0001806991FF1CF8695710561050894089587
:1003B000E894BB2766277727CB0197F908950E9419
:1003C000F2010C94A5010E94970138F00E949E0151
:1003D00020F0952311F00C948E010C9494011124BB
:1003E0000C94D9010E94B60170F3959FC1F3950F4B
:1003F00050E0551F629FF001729FBB27F00DB11DA9
:10040000639FAA27F00DB11DAA1F649F6627B00D38
:10041000A11D661F829F2227B00DA11D621F739F21
:10042000B00DA11D621F839FA00D611D221F749F2F
:100430003327A00D611D231F849F600D211D822F76
:10044000762F6A2F11249F5750409AF0F1F088239D
:100450004AF0EE0FFF1FBB1F661F771F881F9150CA
:100460005040A9F79E3F510580F00C948E010C94EA
:10047000D9015F3FE4F3983ED4F38695779567956D
:10048000B795F795E7959F5FC1F7FE2B880F911DF4
:0C0490009695879597F90895F894FFCF92
:04049C0000004842D2
:00000001FF
