:100000000C9434000C943E000C943E000C943E0082
:100010000C943E000C943E000C943E000C943E0068
:100020000C943E000C943E000C943E000C943E0058
:100030000C943E000C943E000C943E000C943E0048
:100040000C9440000C943E000C943E000C943E0036
:100050000C943E000C943E000C943E000C943E0028
:100060000C943E000C943E0011241FBECFEFD8E04C
:10007000DEBFCDBF0E9454000C9465000C940000BC
:100080001F920F920FB60F9211248F939F9395B1E9
:1000900080E2892785B983E886BD9F918F910F9073
:1000A0000FBE0F901F90189584B18F6184B983E8BB
:1000B00086BD84B584BD85B5846085BD80916E00A4
:0E00C000816080936E007894FFCFF894FFCF9C
:00000001FF
