:100000000C9434000C9451000C9451000C94510049
:100010000C9451000C9451000C9451000C9451001C
:100020000C9451000C9451000C9451000C9451000C
:100030000C9451000C949E000C9451000C945100AF
:100040000C9453000C9451000C9451000C945100EA
:100050000C9451000C9451000C9451000C945100DC
:100060000C9451000C94510011241FBECFEFD8E026
:10007000DEBFCDBF11E0A0E0B1E0E4EBF1E002C0F3
:1000800005900D92A230B107D9F721E0A2E0B1E0CE
:1000900001C01D92A530B207E1F70E94B6000C9492
:1000A000D8000C9400001F920F920FB60F921124EB
:1000B0002F938F939F938091030190910401019658
:1000C0009093040180930301883C91056CF185B104
:1000D000807F85B925B181E090E00090020102C0E7
:1000E000880F991F0A94E2F7822B85B9909100013D
:1000F00080910201992311F08F5F01C0815080939C
:10010000020180910201833018F0911105C008C0EE
:10011000811106C0911104C081E0982790930001DD
:10012000109204011092030186E086BD9F918F9189
:100130002F910F900FBE0F901F9018951F920F9246
:100140000FB60F9211248F939F9395B180E2892768
:1001500085B987EF92EC90938500809384009F91FE
:100160008F910F900FBE0F901F90189584B18F62E2
:1001700084B986E086BD87EF92EC909385008093EA
:10018000840014BC85B5836085BD10928000809189
:10019000810085608093810080916E0081608093F2
:1001A0006E0080916F00816080936F007894FFCF24
:0401B000F894FFCFF1
:0201B400010048
:00000001FF
