:100000000C9434000C9451000C9451000C94510049
:100010000C9451000C9451000C9451000C9451001C
:100020000C9451000C9451000C9451000C9451000C
:100030000C9451000C9451000C9451000C945100FC
:100040000C9453000C9451000C9451000C945100EA
:100050000C9451000C9451000C9451000C945100DC
:100060000C9451000C94510011241FBECFEFD8E026
:10007000DEBFCDBF11E0A0E0B1E0E6EFF5E002C0E9
:1000800005900D92A230B107D9F721E0A2E0B1E0CE
:1000900001C01D92A630B207E1F70E9492000C94B5
:1000A000F9020C9400001F920F920FB60F921124C8
:1000B0002F933F934F935F936F937F938F939F9370
:1000C000AF93BF93EF93FF9320E030E048EC52E40E
:1000D00060910201709103018091040190910501EA
:1000E0000E94710120E030E040E853E40E948C025D
:1000F00020E030E040E85FE30E94FF000E94E3015F
:1001000067BDFF91EF91BF91AF919F918F917F91CB
:100110006F915F914F913F912F910F900FBE0F9074
:100120001F901895569A84B5836884BD85B5836001
:1001300085BD80916E00816080936E0020E030E08C
:1001400048EC52E460910201709103018091040136
:10015000909105010E94710120E030E040E853E4F5
:100160000E948C0220E030E040E85FE30E94FF0044
:100170000E94E30167BD7894D1E0C091000120E0C6
:1001800030E040E85FE360910201709103018091EB
:10019000040190910501CC2319F00E94000102C0D6
:1001A0000E94FF0060930201709303018093040199
:1001B00090930501C0900201D0900301E0900401EA
:1001C000F090050120E030E048EC52E4C701B601B0
:1001D0000E94870287FF09C020E030E0A901C70123
:1001E000B6010E946C0118161CF0CD27C0930001C7
:1001F0008FE39CE90197F1F700C00000BECF505893
:10020000BB27AA270E9417010C944D020E943F02AF
:1002100038F00E94460220F039F49F3F19F426F48A
:100220000C943C020EF4E095E7FB0C943602E92FA7
:100230000E945E0258F3BA17620773078407950796
:1002400020F079F4A6F50C9480020EF4E0950B2EC4
:10025000BA2FA02D0B01B90190010C01CA01A00118
:100260001124FF27591B99F0593F50F4503E68F173
:100270001A16F040A22F232F342F4427585FF3CFB4
:10028000469537952795A795F0405395C9F77EF485
:100290001F16BA0B620B730B840BBAF09150A1F0CE
:1002A000FF0FBB1F661F771F881FC2F70EC0BA0F54
:1002B000621F731F841F48F4879577956795B795DC
:1002C000F7959E3F08F0B0CF9395880F08F09927D7
:1002D000EE0F9795879508950E94120208F481E029
:1002E00008950E9485010C944D020E94460258F028
:1002F0000E943F0240F029F45F3F29F00C9436023F
:1003000051110C9481020C943C020E945E0268F32D
:100310009923B1F3552391F3951B550BBB27AA27BE
:1003200062177307840738F09F5F5F4F220F331FF8
:10033000441FAA1FA9F335D00E2E3AF0E0E832D0C0
:1003400091505040E695001CCAF72BD0FE2F29D0C3
:10035000660F771F881FBB1F261737074807AB0795
:10036000B0E809F0BB0B802DBF01FF2793585F4F0A
:100370003AF09E3F510578F00C9436020C948102BD
:100380005F3FE4F3983ED4F3869577956795B795EC
:10039000F7959F5FC9F7880F911D9695879597F9F7
:1003A0000895E1E0660F771F881FBB1F6217730770
:1003B0008407BA0720F0621B730B840BBA0BEE1F85
:1003C00088F7E09508950E94660288F09F5798F09C
:1003D000B92F9927B751B0F0E1F0660F771F881F4A
:1003E000991F1AF0BA95C9F714C0B13091F00E9464
:1003F0008002B1E008950C948002672F782F88273F
:10040000B85F39F0B93FCCF3869577956795B3958A
:10041000D9F73EF490958095709561957F4F8F4FF9
:100420009F4F0895990F0008550FAA0BE0E8FEEFC3
:1004300016161706E807F907C0F012161306E407A8
:10044000F50798F0621B730B840B950B39F40A26A1
:1004500061F0232B242B252B21F408950A2609F47F
:10046000A140A6958FEF811D811D089597F99F6783
:1004700080E870E060E008959FEF80EC089500242C
:100480000A941616170618060906089500240A94F9
:1004900012161306140605060895092E0394000C7F
:1004A00011F4882352F0BB0F40F4BF2B11F460FF0E
:1004B00004C06F5F7F4F8F4F9F4F089557FD905837
:1004C000440F551F59F05F3F71F04795880F97FB18
:1004D000991F61F09F3F79F08795089512161306D2
:1004E0001406551FF2CF4695F1DF08C01616170601
:1004F0001806991FF1CF8695710561050894089536
:10050000E894BB2766277727CB0197F908950E94C7
:10051000120208F48FEF08950E949F020C944D027E
:100520000E943F0238F00E94460220F0952311F00D
:100530000C9436020C943C0211240C9481020E940B
:100540005E0270F3959FC1F3950F50E0551F629FB7
:10055000F001729FBB27F00DB11D639FAA27F00D1C
:10056000B11DAA1F649F6627B00DA11D661F829F43
:100570002227B00DA11D621F739FB00DA11D621F28
:10058000839FA00D611D221F749F3327A00D611D45
:10059000231F849F600D211D822F762F6A2F112427
:1005A0009F5750409AF0F1F088234AF0EE0FFF1F5A
:1005B000BB1F661F771F881F91505040A9F79E3FB1
:1005C000510580F00C9436020C9481025F3FE4F3F5
:1005D000983ED4F3869577956795B795F795E79507
:1005E0009F5FC1F7FE2B880F911D9695879597F910
:0605F0000895F894FFCF0E
:0205F600010002
:00000001FF
