:100000000C9434000C9446000C9446000C9446006A
:100010000C9446000C9446000C9446000C94460048
:100020000C9446000C9446000C9446000C94460038
:100030000C9446000C9446000C9446000C94460028
:100040000C9446000C9446000C9446000C94460018
:100050000C9446000C9446000C9446000C94460008
:100060000C9446000C94460011241FBECFEFD8E03C
:10007000DEBFCDBF21E0A0E0B1E001C01D92A33002
:10008000B207E1F70E9448000C9470000C94000045
:10009000529884B18F6384B915B891E04A9B13C01C
:1000A0008091010181110FC0909301019093000193
:1000B000809102018F5F803418F4809302010AC09E
:1000C0001092020103C04A9B10920101809100012D
:1000D000882321F38091020185B910920001DECFBF
:0400E000F894FFCFC2
:00000001FF
