:100000000C9434000C9446000C9446000C9446006A
:100010000C9446000C9446000C9446000C94460048
:100020000C9446000C9446000C9446000C94460038
:100030000C9446000C9465000C9446000C94460009
:100040000C9448000C9446000C9446000C94460016
:100050000C9446000C9446000C9446000C94460008
:100060000C9446000C94460011241FBECFEFD8E03C
:10007000DEBFCDBF21E0A0E0B1E001C01D92A13004
:10008000B207E1F70E947D000C949C000C940000E4
:100090001F920F920FB60F9211248F939F9380910E
:1000A00000018F5F809300018D3730F095B181E0C2
:1000B000892785B91092000186E086BD9F918F91B6
:1000C0000F900FBE0F901F9018951F920F920FB6B2
:1000D0000F9211248F939F9395B182E0892785B960
:1000E0008EEE95E890938500809384009F918F9188
:1000F0000F900FBE0F901F90189584B1836084B944
:1001000086E086BD8EEE95E890938500809384000E
:1001100014BC83E085BD1092800084E08093810050
:1001200080916E00816080936E0080916F0081608D
:0C01300080936F007894FFCFF894FFCF0D
:00000001FF
