:100000000C9434000C9451000C9451000C94510049
:100010000C9451000C9451000C9451000C9451001C
:100020000C9451000C9451000C9451000C9451000C
:100030000C9451000C9451000C9451000C945100FC
:100040000C9453000C9451000C9451000C945100EA
:100050000C9451000C9451000C9451000C945100DC
:100060000C9451000C94510011241FBECFEFD8E026
:10007000DEBFCDBF11E0A0E0B1E0E2E2F6E002C0F9
:1000800005900D92A230B107D9F721E0A2E0B1E0CE
:1000900001C01D92A630B207E1F70E9495000C94B2
:1000A0000F030C9400001F920F920FB60F921124B1
:1000B0002F933F934F935F936F937F938F939F9370
:1000C000AF93BF93EF93FF9320E030E048EC52E40E
:1000D00060910201709103018091040190910501EA
:1000E0000E94870120E030E040E853E40E947E0255
:1000F00020E030E040E85FE30E941A010E94F9012D
:1001000067BD8091000185BDFF91EF91BF91AF91D7
:100110009F918F917F916F915F914F913F912F911F
:100120000F900FBE0F901F901895569A84B18E6154
:1001300084B9299A84B5836884BD8091000185BD06
:1001400080916E00816080936E0020E030E048EC8A
:1001500052E4609102017091030180910401909139
:1001600005010E94870120E030E040E853E40E944E
:100170007E0220E030E040E85FE30E941A010E9426
:10018000F90167BD7894C1E0D0E002E010E020E022
:1001900030E040E85FE360910201709103018091DB
:1001A0000401909105010E941B016B017C0120E07C
:1001B00030E048EC52E40E94790287FF09C0C09207
:1001C0000201D0920301E0920401F092050128C0DF
:1001D0001092020110920301109204011092050185
:1001E00080910001909101010196863091052CF4D7
:1001F000909301018093000104C0109301010093CA
:10020000000115B845B12091000130910101215044
:100210003109CE0101C0880F2A95EAF7842B85B9F0
:100220002FEF81EE94E0215080409040E1F700C034
:100230000000ADCF5058BB27AA270E9432010C9472
:100240003F020E94310238F00E94380220F039F457
:100250009F3F19F426F40C942E020EF4E095E7FB70
:100260000C942802E92F0E94500258F3BA17620733
:1002700073078407950720F079F4A6F50C947202B1
:100280000EF4E0950B2EBA2FA02D0B01B9019001B1
:100290000C01CA01A0011124FF27591B99F0593FF5
:1002A00050F4503E68F11A16F040A22F232F342F3D
:1002B0004427585FF3CF469537952795A795F0408B
:1002C0005395C9F77EF41F16BA0B620B730B840BA0
:1002D000BAF09150A1F0FF0FBB1F661F771F881F58
:1002E000C2F70EC0BA0F621F731F841F48F48795B0
:1002F00077956795B795F7959E3F08F0B0CF9395A2
:10030000880F08F09927EE0F9795879508950E941A
:100310009B010C943F020E94380258F00E94310267
:1003200040F029F45F3F29F00C94280251110C94FD
:1003300073020C942E020E94500268F39923B1F3C9
:10034000552391F3951B550BBB27AA2762177307FB
:10035000840738F09F5F5F4F220F331F441FAA1F8F
:10036000A9F335D00E2E3AF0E0E832D0915050404B
:10037000E695001CCAF72BD0FE2F29D0660F771FF9
:10038000881FBB1F261737074807AB07B0E809F0DF
:10039000BB0B802DBF01FF2793585F4F3AF09E3F64
:1003A000510578F00C9428020C9473025F3FE4F33B
:1003B000983ED4F3869577956795B795F7959F5FA7
:1003C000C9F7880F911D9695879597F90895E1E0F3
:1003D000660F771F881FBB1F621773078407BA0752
:1003E00020F0621B730B840BBA0BEE1F88F7E095AD
:1003F00008950E94580288F09F5798F0B92F9927C6
:10040000B751B0F0E1F0660F771F881F991F1AF0FF
:10041000BA95C9F714C0B13091F00E947202B1E0F0
:1004200008950C947202672F782F8827B85F39F0EF
:10043000B93FCCF3869577956795B395D9F73EF498
:1004400090958095709561957F4F8F4F9F4F089540
:1004500097F99F6780E870E060E008959FEF80EC77
:10046000089500240A94161617061806090608951A
:1004700000240A9412161306140605060895092E80
:100480000394000C11F4882352F0BB0F40F4BF2BEF
:1004900011F460FF04C06F5F7F4F8F4F9F4F08952F
:1004A00057FD9058440F551F59F05F3F71F0479525
:1004B000880F97FB991F61F09F3F79F0879508950A
:1004C000121613061406551FF2CF4695F1DF08C029
:1004D000161617061806991FF1CF86957105610546
:1004E00008940895E894BB2766277727CB0197F9EE
:1004F00008950E94EB0208F48FEF08950E94910284
:100500000C943F020E94310238F00E94380220F021
:10051000952311F00C9428020C942E0211240C94B3
:1005200073020E94500270F3959FC1F3950F50E043
:10053000551F629FF001729FBB27F00DB11D639F95
:10054000AA27F00DB11DAA1F649F6627B00DA11D3B
:10055000661F829F2227B00DA11D621F739FB00DE1
:10056000A11D621F839FA00D611D221F749F332751
:10057000A00D611D231F849F600D211D822F762FEA
:100580006A2F11249F5750409AF0F1F088234AF0C7
:10059000EE0FFF1FBB1F661F771F881F9150504033
:1005A000A9F79E3F510580F00C9428020C94730229
:1005B0005F3FE4F3983ED4F3869577956795B795BA
:1005C000F795E7959F5FC1F7FE2B880F911D9695D4
:1005D000879597F90895990F0008550FAA0BE0E841
:1005E000FEEF16161706E807F907C0F012161306F5
:1005F000E407F50798F0621B730B840B950B39F435
:100600000A2661F0232B242B252B21F408950A269A
:1006100009F4A140A6958FEF811D811D0895F894DE
:02062000FFCF0A
:020622000200D4
:00000001FF
