:100000000C9434000C9448000C9446000C94460068
:100010000C9446000C9446000C9446000C94460048
:100020000C9446000C9446000C9446000C94460038
:100030000C9446000C9446000C9446000C94460028
:100040000C9446000C9446000C9446000C94460018
:100050000C9446000C9446000C9446000C94460008
:100060000C9446000C94460011241FBECFEFD8E03C
:10007000DEBFCDBF21E0A0E0B1E001C01D92A13004
:10008000B207E1F70E9463000C9475000C94000025
:100090001F920F920FB60F9211248F9380EC85B9A7
:1000A000809100018F5F803418F48093000102C0BA
:1000B000109200018091000185B98F910F900FBEC1
:1000C0000F901F901895529884B18F6384B915B81A
:1000D00080916900826080936900809169008160ED
:0E00E000809369007894E89AFFCFF894FFCFE0
:00000001FF
