:100000000C9434000C9440000C943E000C943E0080
:100010000C943E000C943E000C943E000C943E0068
:100020000C943E000C943E000C943E000C943E0058
:100030000C943E000C943E000C943E000C943E0048
:100040000C943E000C943E000C943E000C943E0038
:100050000C943E000C943E000C943E000C943E0028
:100060000C943E000C943E0011241FBECFEFD8E04C
:10007000DEBFCDBF0E945B000C9469000C940000B1
:100080001F920F920FB60F9211242F938F939F936D
:1000900028982FEF83ED90E3215080409040E1F7C6
:1000A00000C00000289A9F918F912F910F900FBE52
:1000B0000F901F9018955298209A80916900826045
:1000C0008093690080916900809369007894E89A30
:0600D000FFCFF894FFCF02
:00000001FF
