:100000000C9434000C9446000C9446000C9446006A
:100010000C9446000C9446000C9446000C94460048
:100020000C9446000C9446000C9446000C94460038
:100030000C9446000C9446000C9446000C94460028
:100040000C9446000C9446000C9446000C94460018
:100050000C9446000C9446000C9446000C94460008
:100060000C9446000C94460011241FBECFEFD8E03C
:10007000DEBFCDBF21E0A0E0B1E001C01D92A23003
:10008000B207E1F70E9448000C9477000C9400003E
:1000900052985A9A84B18F6384B915B881E090E080
:1000A00024E04A9B17C0019719F080E090E0F9CF57
:1000B000809100019091010101968034910529F011
:1000C0009093010180930001F0CF109201011092F2
:1000D0000001EBCF892B41F415B88091000190917C
:1000E00001010D9709F425B981E090E0DACFF89489
:0200F000FFCF40
:00000001FF
