:100000000C9434000C9446000C9446000C9446006A
:100010000C9446000C9446000C9446000C94460048
:100020000C9446000C9446000C9446000C94460038
:100030000C9446000C9446000C9446000C94460028
:100040000C9446000C9446000C9446000C94460018
:100050000C9446000C9446000C9446000C94460008
:100060000C9446000C94460011241FBECFEFD8E03C
:10007000DEBFCDBF21E0A0E0B1E001C01D92A23003
:10008000B207E1F70E9448000C946F000C94000046
:1000900052985A9A84B18F6384B915B881E090E080
:1000A0004A9B16C0019789F480910001909101014B
:1000B00001968034910529F090930101809300010D
:1000C00004C0109201011092000180E090E0E8CF9E
:1000D000892B21F715B88091000185B9DFCFF894FD
:0200E000FFCF50
:00000001FF
